{
  "_format": "hh-sol-artifact-1",
  "contractName": "MyNFT",
  "sourceName": "contracts/MyNFT.sol",
  "abi": [
    {
      "inputs": [],
      "stateMutability": "nonpayable",
      "type": "constructor"
    },
    {
      "anonymous": false,
      "inputs": [
        {
          "indexed": true,
          "internalType": "address",
          "name": "owner",
          "type": "address"
        },
        {
          "indexed": true,
          "internalType": "address",
          "name": "approved",
          "type": "address"
        },
        {
          "indexed": true,
          "internalType": "uint256",
          "name": "tokenId",
          "type": "uint256"
        }
      ],
      "name": "Approval",
      "type": "event"
    },
    {
      "anonymous": false,
      "inputs": [
        {
          "indexed": true,
          "internalType": "address",
          "name": "owner",
          "type": "address"
        },
        {
          "indexed": true,
          "internalType": "address",
          "name": "operator",
          "type": "address"
        },
        {
          "indexed": false,
          "internalType": "bool",
          "name": "approved",
          "type": "bool"
        }
      ],
      "name": "ApprovalForAll",
      "type": "event"
    },
    {
      "anonymous": false,
      "inputs": [
        {
          "indexed": true,
          "internalType": "address",
          "name": "previousOwner",
          "type": "address"
        },
        {
          "indexed": true,
          "internalType": "address",
          "name": "newOwner",
          "type": "address"
        }
      ],
      "name": "OwnershipTransferred",
      "type": "event"
    },
    {
      "anonymous": false,
      "inputs": [
        {
          "indexed": true,
          "internalType": "address",
          "name": "from",
          "type": "address"
        },
        {
          "indexed": true,
          "internalType": "address",
          "name": "to",
          "type": "address"
        },
        {
          "indexed": true,
          "internalType": "uint256",
          "name": "tokenId",
          "type": "uint256"
        }
      ],
      "name": "Transfer",
      "type": "event"
    },
    {
      "inputs": [
        {
          "internalType": "address",
          "name": "to",
          "type": "address"
        },
        {
          "internalType": "uint256",
          "name": "tokenId",
          "type": "uint256"
        }
      ],
      "name": "approve",
      "outputs": [],
      "stateMutability": "nonpayable",
      "type": "function"
    },
    {
      "inputs": [
        {
          "internalType": "address",
          "name": "owner",
          "type": "address"
        }
      ],
      "name": "balanceOf",
      "outputs": [
        {
          "internalType": "uint256",
          "name": "",
          "type": "uint256"
        }
      ],
      "stateMutability": "view",
      "type": "function"
    },
    {
      "inputs": [],
      "name": "baseURI",
      "outputs": [
        {
          "internalType": "string",
          "name": "",
          "type": "string"
        }
      ],
      "stateMutability": "view",
      "type": "function"
    },
    {
      "inputs": [
        {
          "internalType": "uint256",
          "name": "tokenId",
          "type": "uint256"
        }
      ],
      "name": "getApproved",
      "outputs": [
        {
          "internalType": "address",
          "name": "",
          "type": "address"
        }
      ],
      "stateMutability": "view",
      "type": "function"
    },
    {
      "inputs": [
        {
          "internalType": "address",
          "name": "owner",
          "type": "address"
        },
        {
          "internalType": "address",
          "name": "operator",
          "type": "address"
        }
      ],
      "name": "isApprovedForAll",
      "outputs": [
        {
          "internalType": "bool",
          "name": "",
          "type": "bool"
        }
      ],
      "stateMutability": "view",
      "type": "function"
    },
    {
      "inputs": [
        {
          "internalType": "address",
          "name": "recipient",
          "type": "address"
        },
        {
          "internalType": "string",
          "name": "tokenURI",
          "type": "string"
        }
      ],
      "name": "mintNFT",
      "outputs": [
        {
          "internalType": "uint256",
          "name": "",
          "type": "uint256"
        }
      ],
      "stateMutability": "nonpayable",
      "type": "function"
    },
    {
      "inputs": [],
      "name": "name",
      "outputs": [
        {
          "internalType": "string",
          "name": "",
          "type": "string"
        }
      ],
      "stateMutability": "view",
      "type": "function"
    },
    {
      "inputs": [],
      "name": "owner",
      "outputs": [
        {
          "internalType": "address",
          "name": "",
          "type": "address"
        }
      ],
      "stateMutability": "view",
      "type": "function"
    },
    {
      "inputs": [
        {
          "internalType": "uint256",
          "name": "tokenId",
          "type": "uint256"
        }
      ],
      "name": "ownerOf",
      "outputs": [
        {
          "internalType": "address",
          "name": "",
          "type": "address"
        }
      ],
      "stateMutability": "view",
      "type": "function"
    },
    {
      "inputs": [],
      "name": "renounceOwnership",
      "outputs": [],
      "stateMutability": "nonpayable",
      "type": "function"
    },
    {
      "inputs": [
        {
          "internalType": "address",
          "name": "from",
          "type": "address"
        },
        {
          "internalType": "address",
          "name": "to",
          "type": "address"
        },
        {
          "internalType": "uint256",
          "name": "tokenId",
          "type": "uint256"
        }
      ],
      "name": "safeTransferFrom",
      "outputs": [],
      "stateMutability": "nonpayable",
      "type": "function"
    },
    {
      "inputs": [
        {
          "internalType": "address",
          "name": "from",
          "type": "address"
        },
        {
          "internalType": "address",
          "name": "to",
          "type": "address"
        },
        {
          "internalType": "uint256",
          "name": "tokenId",
          "type": "uint256"
        },
        {
          "internalType": "bytes",
          "name": "_data",
          "type": "bytes"
        }
      ],
      "name": "safeTransferFrom",
      "outputs": [],
      "stateMutability": "nonpayable",
      "type": "function"
    },
    {
      "inputs": [
        {
          "internalType": "address",
          "name": "operator",
          "type": "address"
        },
        {
          "internalType": "bool",
          "name": "approved",
          "type": "bool"
        }
      ],
      "name": "setApprovalForAll",
      "outputs": [],
      "stateMutability": "nonpayable",
      "type": "function"
    },
    {
      "inputs": [
        {
          "internalType": "bytes4",
          "name": "interfaceId",
          "type": "bytes4"
        }
      ],
      "name": "supportsInterface",
      "outputs": [
        {
          "internalType": "bool",
          "name": "",
          "type": "bool"
        }
      ],
      "stateMutability": "view",
      "type": "function"
    },
    {
      "inputs": [],
      "name": "symbol",
      "outputs": [
        {
          "internalType": "string",
          "name": "",
          "type": "string"
        }
      ],
      "stateMutability": "view",
      "type": "function"
    },
    {
      "inputs": [
        {
          "internalType": "uint256",
          "name": "index",
          "type": "uint256"
        }
      ],
      "name": "tokenByIndex",
      "outputs": [
        {
          "internalType": "uint256",
          "name": "",
          "type": "uint256"
        }
      ],
      "stateMutability": "view",
      "type": "function"
    },
    {
      "inputs": [
        {
          "internalType": "address",
          "name": "owner",
          "type": "address"
        },
        {
          "internalType": "uint256",
          "name": "index",
          "type": "uint256"
        }
      ],
      "name": "tokenOfOwnerByIndex",
      "outputs": [
        {
          "internalType": "uint256",
          "name": "",
          "type": "uint256"
        }
      ],
      "stateMutability": "view",
      "type": "function"
    },
    {
      "inputs": [
        {
          "internalType": "uint256",
          "name": "tokenId",
          "type": "uint256"
        }
      ],
      "name": "tokenURI",
      "outputs": [
        {
          "internalType": "string",
          "name": "",
          "type": "string"
        }
      ],
      "stateMutability": "view",
      "type": "function"
    },
    {
      "inputs": [],
      "name": "totalSupply",
      "outputs": [
        {
          "internalType": "uint256",
          "name": "",
          "type": "uint256"
        }
      ],
      "stateMutability": "view",
      "type": "function"
    },
    {
      "inputs": [
        {
          "internalType": "address",
          "name": "from",
          "type": "address"
        },
        {
          "internalType": "address",
          "name": "to",
          "type": "address"
        },
        {
          "internalType": "uint256",
          "name": "tokenId",
          "type": "uint256"
        }
      ],
      "name": "transferFrom",
      "outputs": [],
      "stateMutability": "nonpayable",
      "type": "function"
    },
    {
      "inputs": [
        {
          "internalType": "address",
          "name": "newOwner",
          "type": "address"
        }
      ],
      "name": "transferOwnership",
      "outputs": [],
      "stateMutability": "nonpayable",
      "type": "function"
    }
  ],
  "bytecode": "0x60806040523480156200001157600080fd5b506040805180820182526005815264135e53919560da1b6020808301919091528251808401909352600383526213919560ea1b90830152906200005b6301ffc9a760e01b62000120565b815162000070906006906020850190620001a9565b50805162000086906007906020840190620001a9565b50620000996380ac58cd60e01b62000120565b620000ab635b5e139f60e01b62000120565b620000bd63780e9d6360e01b62000120565b5060009050620000cc620001a5565b600a80546001600160a01b0319166001600160a01b038316908117909155604051919250906000907f8be0079c531659141344cd1fd0a4f28419497f9722a3daafe3b4186f6b6457e0908290a35062000245565b6001600160e01b0319808216141562000180576040805162461bcd60e51b815260206004820152601c60248201527f4552433136353a20696e76616c696420696e7465726661636520696400000000604482015290519081900360640190fd5b6001600160e01b0319166000908152602081905260409020805460ff19166001179055565b3390565b828054600181600116156101000203166002900490600052602060002090601f016020900481019282601f10620001ec57805160ff19168380011785556200021c565b828001600101855582156200021c579182015b828111156200021c578251825591602001919060010190620001ff565b506200022a9291506200022e565b5090565b5b808211156200022a57600081556001016200022f565b611fd280620002556000396000f3fe608060405234801561001057600080fd5b50600436106101375760003560e01c80636c0360eb116100b8578063a22cb4651161007c578063a22cb4651461038d578063b88d4fde146103bb578063c87b56dd14610481578063e985e9c51461049e578063eacabe14146104cc578063f2fde38b1461058257610137565b80636c0360eb1461034757806370a082311461034f578063715018a6146103755780638da5cb5b1461037d57806395d89b411461038557610137565b806323b872dd116100ff57806323b872dd146102755780632f745c59146102ab57806342842e0e146102d75780634f6ccce71461030d5780636352211e1461032a57610137565b806301ffc9a71461013c57806306fdde0314610177578063081812fc146101f4578063095ea7b31461022d57806318160ddd1461025b575b600080fd5b6101636004803603602081101561015257600080fd5b50356001600160e01b0319166105a8565b604080519115158252519081900360200190f35b61017f6105cb565b6040805160208082528351818301528351919283929083019185019080838360005b838110156101b95781810151838201526020016101a1565b50505050905090810190601f1680156101e65780820380516001836020036101000a031916815260200191505b509250505060405180910390f35b6102116004803603602081101561020a57600080fd5b5035610661565b604080516001600160a01b039092168252519081900360200190f35b6102596004803603604081101561024357600080fd5b506001600160a01b0381351690602001356106c3565b005b61026361079e565b60408051918252519081900360200190f35b6102596004803603606081101561028b57600080fd5b506001600160a01b038135811691602081013590911690604001356107af565b610263600480360360408110156102c157600080fd5b506001600160a01b038135169060200135610806565b610259600480360360608110156102ed57600080fd5b506001600160a01b03813581169160208101359091169060400135610831565b6102636004803603602081101561032357600080fd5b503561084c565b6102116004803603602081101561034057600080fd5b5035610862565b61017f61088a565b6102636004803603602081101561036557600080fd5b50356001600160a01b03166108eb565b610259610953565b610211610a07565b61017f610a16565b610259600480360360408110156103a357600080fd5b506001600160a01b0381351690602001351515610a77565b610259600480360360808110156103d157600080fd5b6001600160a01b0382358116926020810135909116916040820135919081019060808101606082013564010000000081111561040c57600080fd5b82018360208201111561041e57600080fd5b8035906020019184600183028401116401000000008311171561044057600080fd5b91908080601f016020809104026020016040519081016040528093929190818152602001838380828437600092019190915250929550610b7c945050505050565b61017f6004803603602081101561049757600080fd5b5035610bda565b610163600480360360408110156104b457600080fd5b506001600160a01b0381358116916020013516610e81565b610263600480360360408110156104e257600080fd5b6001600160a01b03823516919081019060408101602082013564010000000081111561050d57600080fd5b82018360208201111561051f57600080fd5b8035906020019184600183028401116401000000008311171561054157600080fd5b91908080601f016020809104026020016040519081016040528093929190818152602001838380828437600092019190915250929550610eaf945050505050565b6102596004803603602081101561059857600080fd5b50356001600160a01b0316610f47565b6001600160e01b0319811660009081526020819052604090205460ff165b919050565b60068054604080516020601f60026000196101006001881615020190951694909404938401819004810282018101909252828152606093909290918301828280156106575780601f1061062c57610100808354040283529160200191610657565b820191906000526020600020905b81548152906001019060200180831161063a57829003601f168201915b5050505050905090565b600061066c82611052565b6106a75760405162461bcd60e51b815260040180806020018281038252602c815260200180611e9b602c913960400191505060405180910390fd5b506000908152600460205260409020546001600160a01b031690565b60006106ce82610862565b9050806001600160a01b0316836001600160a01b031614156107215760405162461bcd60e51b8152600401808060200182810382526021815260200180611f4b6021913960400191505060405180910390fd5b806001600160a01b031661073361105f565b6001600160a01b0316148061075457506107548161074f61105f565b610e81565b61078f5760405162461bcd60e51b8152600401808060200182810382526038815260200180611dee6038913960400191505060405180910390fd5b6107998383611063565b505050565b60006107aa60026110d1565b905090565b6107c06107ba61105f565b826110dc565b6107fb5760405162461bcd60e51b8152600401808060200182810382526031815260200180611f6c6031913960400191505060405180910390fd5b610799838383611180565b6001600160a01b038216600090815260016020526040812061082890836112cc565b90505b92915050565b61079983838360405180602001604052806000815250610b7c565b60008061085a6002846112d8565b509392505050565b600061082b82604051806060016040528060298152602001611e5060299139600291906112f4565b60098054604080516020601f60026000196101006001881615020190951694909404938401819004810282018101909252828152606093909290918301828280156106575780601f1061062c57610100808354040283529160200191610657565b60006001600160a01b0382166109325760405162461bcd60e51b815260040180806020018281038252602a815260200180611e26602a913960400191505060405180910390fd5b6001600160a01b038216600090815260016020526040902061082b906110d1565b61095b61105f565b600a546001600160a01b039081169116146109bd576040805162461bcd60e51b815260206004820181905260248201527f4f776e61626c653a2063616c6c6572206973206e6f7420746865206f776e6572604482015290519081900360640190fd5b600a546040516000916001600160a01b0316907f8be0079c531659141344cd1fd0a4f28419497f9722a3daafe3b4186f6b6457e0908390a3600a80546001600160a01b0319169055565b600a546001600160a01b031690565b60078054604080516020601f60026000196101006001881615020190951694909404938401819004810282018101909252828152606093909290918301828280156106575780601f1061062c57610100808354040283529160200191610657565b610a7f61105f565b6001600160a01b0316826001600160a01b03161415610ae5576040805162461bcd60e51b815260206004820152601960248201527f4552433732313a20617070726f766520746f2063616c6c657200000000000000604482015290519081900360640190fd5b8060056000610af261105f565b6001600160a01b03908116825260208083019390935260409182016000908120918716808252919093529120805460ff191692151592909217909155610b3661105f565b6001600160a01b03167f17307eab39ab6107e8899845ad3d59bd9653f200f220920489ca2b5937696c318360405180821515815260200191505060405180910390a35050565b610b8d610b8761105f565b836110dc565b610bc85760405162461bcd60e51b8152600401808060200182810382526031815260200180611f6c6031913960400191505060405180910390fd5b610bd48484848461130b565b50505050565b6060610be582611052565b610c205760405162461bcd60e51b815260040180806020018281038252602f815260200180611f1c602f913960400191505060405180910390fd5b60008281526008602090815260409182902080548351601f6002600019610100600186161502019093169290920491820184900484028101840190945280845260609392830182828015610cb55780601f10610c8a57610100808354040283529160200191610cb5565b820191906000526020600020905b815481529060010190602001808311610c9857829003601f168201915b505060095493945050505060026000196101006001841615020190911604610cde5790506105c6565b805115610daf576009816040516020018083805460018160011615610100020316600290048015610d465780601f10610d24576101008083540402835291820191610d46565b820191906000526020600020905b815481529060010190602001808311610d32575b5050825160208401908083835b60208310610d725780518252601f199092019160209182019101610d53565b6001836020036101000a038019825116818451168082178552505050505050905001925050506040516020818303038152906040529150506105c6565b6009610dba8461135d565b6040516020018083805460018160011615610100020316600290048015610e185780601f10610df6576101008083540402835291820191610e18565b820191906000526020600020905b815481529060010190602001808311610e04575b5050825160208401908083835b60208310610e445780518252601f199092019160209182019101610e25565b6001836020036101000a03801982511681845116808217855250505050505090500192505050604051602081830303815290604052915050919050565b6001600160a01b03918216600090815260056020908152604080832093909416825291909152205460ff1690565b6000610eb961105f565b600a546001600160a01b03908116911614610f1b576040805162461bcd60e51b815260206004820181905260248201527f4f776e61626c653a2063616c6c6572206973206e6f7420746865206f776e6572604482015290519081900360640190fd5b610f25600b611438565b6000610f31600b611441565b9050610f3d8482611445565b6108288184611573565b610f4f61105f565b600a546001600160a01b03908116911614610fb1576040805162461bcd60e51b815260206004820181905260248201527f4f776e61626c653a2063616c6c6572206973206e6f7420746865206f776e6572604482015290519081900360640190fd5b6001600160a01b038116610ff65760405162461bcd60e51b8152600401808060200182810382526026815260200180611d786026913960400191505060405180910390fd5b600a546040516001600160a01b038084169216907f8be0079c531659141344cd1fd0a4f28419497f9722a3daafe3b4186f6b6457e090600090a3600a80546001600160a01b0319166001600160a01b0392909216919091179055565b600061082b6002836115d6565b3390565b600081815260046020526040902080546001600160a01b0319166001600160a01b038416908117909155819061109882610862565b6001600160a01b03167f8c5be1e5ebec7d5bd14f71427d1e84f3dd0314c0f7b2291e5b200ac8c7c3b92560405160405180910390a45050565b600061082b82611441565b60006110e782611052565b6111225760405162461bcd60e51b815260040180806020018281038252602c815260200180611dc2602c913960400191505060405180910390fd5b600061112d83610862565b9050806001600160a01b0316846001600160a01b031614806111685750836001600160a01b031661115d84610661565b6001600160a01b0316145b8061117857506111788185610e81565b949350505050565b826001600160a01b031661119382610862565b6001600160a01b0316146111d85760405162461bcd60e51b8152600401808060200182810382526029815260200180611ef36029913960400191505060405180910390fd5b6001600160a01b03821661121d5760405162461bcd60e51b8152600401808060200182810382526024815260200180611d9e6024913960400191505060405180910390fd5b611228838383610799565b611233600082611063565b6001600160a01b038316600090815260016020526040902061125590826115e2565b506001600160a01b038216600090815260016020526040902061127890826115ee565b50611285600282846115fa565b5080826001600160a01b0316846001600160a01b03167fddf252ad1be2c89b69c2b068fc378daa952ba7f163c4a11628f55a4df523b3ef60405160405180910390a4505050565b60006108288383611610565b60008080806112e78686611674565b9097909650945050505050565b60006113018484846116ef565b90505b9392505050565b611316848484611180565b611322848484846117b9565b610bd45760405162461bcd60e51b8152600401808060200182810382526032815260200180611d466032913960400191505060405180910390fd5b60608161138257506040805180820190915260018152600360fc1b60208201526105c6565b8160005b811561139a57600101600a82049150611386565b60608167ffffffffffffffff811180156113b357600080fd5b506040519080825280601f01601f1916602001820160405280156113de576020820181803683370190505b50859350905060001982015b831561142f57600a840660300160f81b8282806001900393508151811061140d57fe5b60200101906001600160f81b031916908160001a905350600a840493506113ea565b50949350505050565b80546001019055565b5490565b6001600160a01b0382166114a0576040805162461bcd60e51b815260206004820181905260248201527f4552433732313a206d696e7420746f20746865207a65726f2061646472657373604482015290519081900360640190fd5b6114a981611052565b156114fb576040805162461bcd60e51b815260206004820152601c60248201527f4552433732313a20746f6b656e20616c7265616479206d696e74656400000000604482015290519081900360640190fd5b61150760008383610799565b6001600160a01b038216600090815260016020526040902061152990826115ee565b50611536600282846115fa565b5060405181906001600160a01b038416906000907fddf252ad1be2c89b69c2b068fc378daa952ba7f163c4a11628f55a4df523b3ef908290a45050565b61157c82611052565b6115b75760405162461bcd60e51b815260040180806020018281038252602c815260200180611ec7602c913960400191505060405180910390fd5b6000828152600860209081526040909120825161079992840190611c90565b60006108288383611921565b60006108288383611939565b600061082883836119ff565b600061130184846001600160a01b038516611a49565b815460009082106116525760405162461bcd60e51b8152600401808060200182810382526022815260200180611d246022913960400191505060405180910390fd5b82600001828154811061166157fe5b9060005260206000200154905092915050565b8154600090819083106116b85760405162461bcd60e51b8152600401808060200182810382526022815260200180611e796022913960400191505060405180910390fd5b60008460000184815481106116c957fe5b906000526020600020906002020190508060000154816001015492509250509250929050565b6000828152600184016020526040812054828161178a5760405162461bcd60e51b81526004018080602001828103825283818151815260200191508051906020019080838360005b8381101561174f578181015183820152602001611737565b50505050905090810190601f16801561177c5780820380516001836020036101000a031916815260200191505b509250505060405180910390fd5b5084600001600182038154811061179d57fe5b9060005260206000209060020201600101549150509392505050565b60006117cd846001600160a01b0316611ae0565b6117d957506001611178565b60606118e7630a85bd0160e11b6117ee61105f565b88878760405160240180856001600160a01b03168152602001846001600160a01b0316815260200183815260200180602001828103825283818151815260200191508051906020019080838360005b8381101561185557818101518382015260200161183d565b50505050905090810190601f1680156118825780820380516001836020036101000a031916815260200191505b5095505050505050604051602081830303815290604052906001600160e01b0319166020820180516001600160e01b038381831617835250505050604051806060016040528060328152602001611d46603291396001600160a01b0388169190611b19565b9050600081806020019051602081101561190057600080fd5b50516001600160e01b031916630a85bd0160e11b1492505050949350505050565b60009081526001919091016020526040902054151590565b600081815260018301602052604081205480156119f5578354600019808301919081019060009087908390811061196c57fe5b906000526020600020015490508087600001848154811061198957fe5b6000918252602080832090910192909255828152600189810190925260409020908401905586548790806119b957fe5b6001900381819060005260206000200160009055905586600101600087815260200190815260200160002060009055600194505050505061082b565b600091505061082b565b6000611a0b8383611921565b611a415750815460018181018455600084815260208082209093018490558454848252828601909352604090209190915561082b565b50600061082b565b600082815260018401602052604081205480611aae575050604080518082018252838152602080820184815286546001818101895560008981528481209551600290930290950191825591519082015586548684528188019092529290912055611304565b82856000016001830381548110611ac157fe5b9060005260206000209060020201600101819055506000915050611304565b6000813f7fc5d2460186f7233c927e7db2dcc703c0e500b653ca82273b7bfad8045d85a470818114801590611178575050151592915050565b606061130184846000856060611b2e85611ae0565b611b7f576040805162461bcd60e51b815260206004820152601d60248201527f416464726573733a2063616c6c20746f206e6f6e2d636f6e7472616374000000604482015290519081900360640190fd5b60006060866001600160a01b031685876040518082805190602001908083835b60208310611bbe5780518252601f199092019160209182019101611b9f565b6001836020036101000a03801982511681845116808217855250505050505090500191505060006040518083038185875af1925050503d8060008114611c20576040519150601f19603f3d011682016040523d82523d6000602084013e611c25565b606091505b50915091508115611c395791506111789050565b805115611c495780518082602001fd5b60405162461bcd60e51b815260206004820181815286516024840152865187939192839260440191908501908083836000831561174f578181015183820152602001611737565b828054600181600116156101000203166002900490600052602060002090601f016020900481019282601f10611cd157805160ff1916838001178555611cfe565b82800160010185558215611cfe579182015b82811115611cfe578251825591602001919060010190611ce3565b50611d0a929150611d0e565b5090565b5b80821115611d0a5760008155600101611d0f56fe456e756d657261626c655365743a20696e646578206f7574206f6620626f756e64734552433732313a207472616e7366657220746f206e6f6e20455243373231526563656976657220696d706c656d656e7465724f776e61626c653a206e6577206f776e657220697320746865207a65726f20616464726573734552433732313a207472616e7366657220746f20746865207a65726f20616464726573734552433732313a206f70657261746f7220717565727920666f72206e6f6e6578697374656e7420746f6b656e4552433732313a20617070726f76652063616c6c6572206973206e6f74206f776e6572206e6f7220617070726f76656420666f7220616c6c4552433732313a2062616c616e636520717565727920666f7220746865207a65726f20616464726573734552433732313a206f776e657220717565727920666f72206e6f6e6578697374656e7420746f6b656e456e756d657261626c654d61703a20696e646578206f7574206f6620626f756e64734552433732313a20617070726f76656420717565727920666f72206e6f6e6578697374656e7420746f6b656e4552433732314d657461646174613a2055524920736574206f66206e6f6e6578697374656e7420746f6b656e4552433732313a207472616e73666572206f6620746f6b656e2074686174206973206e6f74206f776e4552433732314d657461646174613a2055524920717565727920666f72206e6f6e6578697374656e7420746f6b656e4552433732313a20617070726f76616c20746f2063757272656e74206f776e65724552433732313a207472616e736665722063616c6c6572206973206e6f74206f776e6572206e6f7220617070726f766564a2646970667358221220a7821da2649bcd0b100881a8a14febadb1effd7093d83a8af7a74a1f804e8ff664736f6c63430007000033",
  "linkReferences": {},
  "deployedLinkReferences": {}
}